:020000040800F2
:10000000FCFF00209D040008ED040008ED0400083A
:10001000ED040008ED040008ED04000800000000F5
:10002000000000000000000000000000ED040008D7
:10003000ED04000800000000ED040008893200080B
:10004000ED040008ED040008ED040008ED040008CC
:10005000ED040008ED040008ED040008ED040008BC
:10006000ED040008ED040008ED040008ED040008AC
:10007000ED040008ED040008ED040008ED0400089C
:10008000ED040008ED040008ED040008ED0400088C
:10009000ED040008ED040008ED040008ED0400087C
:1000A000ED040008ED040008ED040008ED0400086C
:1000B000ED040008ED040008ED040008ED0400085C
:1000C000ED040008ED040008ED040008ED0400084C
:1000D000ED040008ED040008ED040008ED0400083C
:1000E000ED040008ED040008ED040008ED0400082C
:1000F000ED040008ED040008ED040008ED0400081C
:10010000ED040008ED040008ED040008ED0400080B
:10011000ED040008ED040008ED040008ED040008FB
:10012000ED040008ED040008ED040008ED040008EB
:10013000ED040008ED040008ED040008ED040008DB
:10014000ED040008ED040008ED040008E1320008A9
:10015000ED040008ED040008ED040008ED040008BB
:10016000ED040008ED040008ED040008ED040008AB
:10017000ED040008ED040008ED0400080000000094
:08018000ED040008ED04000885
:10018800034613F8012B002AFBD1181A01387047CF
:1001980053B94AB9002908BF00281CBF4FF0FF31E6
:1001A8004FF0FF3000F074B9ADF1080C6DE904CEE2
:1001B80000F006F8DDF804E0DDE9022304B070473A
:1001C8002DE9F047089D04468E46002B4DD18A4202
:1001D800944669D9B2FA82F252B101FA02F3C2F135
:1001E800200120FA01F10CFA02FC41EA030E9440C6
:1001F8004FEA1C48210CBEFBF8F61FFA8CF708FBE7
:1002080016E341EA034306FB07F199420AD91CEBBE
:10021800030306F1FF3080F01F81994240F21C81F0
:10022800023E63445B1AA4B2B3FBF8F008FB103338
:1002380044EA034400FB07F7A7420AD91CEB04046D
:1002480000F1FF3380F00A81A74240F2078164443D
:10025800023840EA0640E41B00261DB1D4400023C2
:10026800C5E900433146BDE8F0878B4209D9002D26
:1002780000F0EF800026C5E9000130463146BDE8B0
:10028800F087B3FA83F6002E4AD18B4202D382421A
:1002980000F2F980841A61EB030301209E46002DC9
:1002A800E0D0C5E9004EDDE702B9FFDEB2FA82F21E
:1002B800002A40F09280A1EB0C014FEA1C471FFA7C
:1002C8008CFE0126200CB1FBF7F307FB131140EA63
:1002D80001410EFB03F0884208D91CEB010103F130
:1002E800FF3802D2884200F2CB804346091AA4B2F2
:1002F800B1FBF7F007FB101144EA01440EFB00FEC6
:10030800A64508D91CEB040400F1FF3102D2A6452A
:1003180000F2BB800846A4EB0E0440EA03409CE7C9
:10032800C6F12007B34022FA07FC4CEA030C20FA76
:1003380007F401FA06F31C43F9404FEA1C4900FA96
:1003480006F3B1FBF9F8200C1FFA8CFE09FB181113
:1003580040EA014108FB0EF0884202FA06F20BD986
:100368001CEB010108F1FF3A80F08880884240F2D6
:100378008580A8F102086144091AA4B2B1FBF9F01A
:1003880009FB101144EA014100FB0EFE8E4508D915
:100398001CEB010100F1FF346CD28E456AD902389A
:1003A800614440EA0840A0FB0294A1EB0E01A1427F
:1003B800C846A64656D353D05DB1B3EB080261EBED
:1003C8000E0101FA07F722FA06F3F1401F43C5E9C7
:1003D800007100263146BDE8F087C2F12003D840FD
:1003E8000CFA02FC21FA03F3914001434FEA1C473F
:1003F8001FFA8CFEB3FBF7F007FB10360B0C43EA31
:10040800064300FB0EF69E4204FA02F408D91CEBE0
:10041800030300F1FF382FD29E422DD902386344DE
:100428009B1B89B2B3FBF7F607FB163341EA03417E
:1004380006FB0EF38B4208D91CEB010106F1FF38CD
:1004480016D28B4214D9023E6144C91A46EA0046C4
:1004580038E72E46284605E70646E3E61846F8E656
:100468004B45A9D2B9EB020864EB0C0E0138A3E79F
:100478004646EAE7204694E74046D1E7D0467BE780
:10048800023B614432E7304609E76444023842E7F8
:10049800704700BFDFF834D0002103E00C4B5B58F5
:1004A800435004310B480C4B42189A42F6D30B4A7E
:1004B80002E0002342F8043B094B9A42F9D303F0C7
:1004C80023F903F02FF901F05DFE7047FCFF0020CF
:1004D800CC38000800000020DC020020DC020020EC
:1004E800141E0020FEE7002070470A4492B2914291
:1004F8004FEA400001D8824201DB121A92B210463C
:10050800704700004B6902490B610121184700BF81
:10051800240300200B4B4FF47A721B68B3FBF2F3F1
:1005280058430138B0F1807F0AD24FF0E023064AE1
:100538005861F02182F8231000229A6107221A617B
:10054800704700BF4400002000ED00E04FF0E022BB
:10055800136923F0010313617047000038B5144B89
:100568000328186015D004281DD00228114C124DFC
:1005780007D10120FFF7CEFF2B882380AB78A3702B
:1005880038BD0520FFF7C6FFB5F8033023806B7927
:10059800F5E71920FFF7BEFF084A064B1188927845
:1005A80019809A70ECE7BDE83840FFF7CFBF00BF6D
:1005B8002C1D0020291D0020B03700083E00002017
:1005C8002DE9F74F684ADFF8A881DFF8A8E1002392
:1005D8000E6801249C4004EA0605B44340F0B1804B
:1005E8004C6824F010045E004FF0030C013C0CFA38
:1005F80006FC012C6FEA0C0C11D8846804EA0C097B
:10060800CC68B44044EA09048460446824EA0509D3
:100618004C68C4F300149C4044EA09044460C4686C
:1006280004EA0C098C68B44044EA0904C4604C68C4
:1006380024F01004022C16D14FEAD30A00EB8A0AE0
:1006480003F0070BDAF820404FEA8B0B4FF00F0945
:1006580009FA0BF924EA09090C6904FA0BF444EACB
:100668000904CAF82040046804EA0C0C4C6804F039
:100678000304B44044EA0C0404604C68E40060D508
:100688003A4F002401947E6C46F480467E647E6C6A
:1006980006F480460196019E23F0030606F1804683
:1006A80006F59C3603F00309D6F808A04FEA890935
:1006B8004FF00F0CA7F560570CFA09FCB8422AEA6C
:1006C8000C0C1BD004F1804404F50134A0423FD047
:1006D80004F58064A0423DD004F58064A0423BD07C
:1006E80040453BD070453BD004F54064A04239D02A
:1006F80004F58064A0420CBF0724082404FA09F416
:1007080044EA0C04B4604F681468EE43FF034CBF1E
:100718002C43344014604F685468BF034CBF2C43CB
:10072800344054604F689468FF024CBF2C433440F7
:1007380094604F68D468BF0254BF06EA0405254395
:10074800D5600133102B7FF443AF03B0BDE8F08FC1
:100758000124D3E70224D1E70324CFE70424CDE71B
:100768000524CBE70624C9E7003C014000380240D5
:10077800001002400014024030B5254B254C0022E1
:10078800DA612568244AD168C90339D4D168C80711
:1007980044BF0121D160D06810F0F20037D0D16891
:1007A800C90605D5D96941F01001D9611021D16078
:1007B800194AD1688D0605D5D96941F00801D96172
:1007C8002021D160D1684C0605D5D96941F00401D2
:1007D800D9614021D160104AD168080605D5D96988
:1007E80041F00201D9618021D160D168890705D51E
:1007F800D96941F02001D9610223D360012006E0C4
:10080800411CC0D02168491B8142BCD9032030BD9E
:10081800301D0020501D0020003C0240F0B5294D3D
:1008280005EB00140228277A01F07F0634BF03463F
:100838000023B74208D84FF0E023D3F8F03DDB0798
:1008480000D500BE0020F0BD1B010332C809ED58D9
:10085800C2F38D0215D108323A446B6A520092B243
:1008680093420CD2184B9B88934207D24FF0E02357
:10087800D3F8F03DDC07E5D500BEE4E76A62012065
:10088800E1E7607A104920B18B799842D3D90133D6
:100898008B71AB68180658BF5200686A8B8858BFBE
:1008A80092B210448342C6D39B1A9BB28B8043EA10
:1008B80002420EB9AA62E2E706F13F0305EB8303A1
:1008C8005A60DCE710380008380300200C4A022878
:1008D80034BF0146002102EB0013090151581A7A6E
:1008E800DB68183252004A62064A9B0893809AB223
:1008F80042EA0343CB6540228021FFF78FBF00BF48
:100908001038000838030020022828BF00202D4B8B
:100918000001F0B5551E1C582B4E18BF01250029A3
:1009280040D12A4F06EB021037F81230408998421E
:1009380028BF18461B1A27F81230012301EB0515AA
:1009480004EB4515C3F3090340EAC343C5F810395E
:10095800D5F800391F46C7F30747C3F3076C07F0FC
:100968000C076CF07B0C042F6CF31F630ED102EBA9
:10097800410706EB0716367B012E07D1D4F8086825
:10098800F6054CBF43F0805343F00053012AC5F8E5
:10099800003906D128B1D4F834388A401A43C4F84B
:1009A8003428F0BD02EB410306EB03135F89188975
:1009B800C319013BB3FBF7F39BB2012B38BF0123EB
:1009C800BCE700BF10380008541D00203803002081
:1009D800084B03EB0010426853B2002B08DB0121DF
:1009E80002F01F0201FA02F25B09034941F82320D1
:1009F800704700BF1038000800E100E00D4B1A787E
:100A080010B11046FFF7E4BF0B4B03EB02135A6813
:100A180053B2002B0DDB01215B0902F01F0201FA22
:100A280002F22033054941F82320BFF34F8FBFF36B
:100A38006F8F7047580000201038000800E100E070
:100A4800022828BF00203B4B000110B501F07F04AD
:100A5800C909185881F001031B01B1B334B11A193F
:100A680000EB4212D2F80019002910DB234400EBF6
:100A78004313D3F8002942F00262C3F80029A30106
:100A880043F02003036103699C06FCD410BDD2F82F
:100A9800001941F00061C2F80019D2F80819490696
:100AA800FBD5D2F8001941F0804141F400112344EC
:100AB800C2F8001900EB4312D2F80819890702F6A8
:100AC8000813F9D502221A60D9E734B11A1900EBD4
:100AD8004212D2F80019002909DB234400EB431322
:100AE800D3F8002942F40012C3F80029CEE7D0F861
:100AF800041841F40071C0F8041841690906FCD5CE
:100B0800D2F8001941F0804141F400112344C2F8A1
:100B1800001900EB4313D3F80819890703F60812E4
:100B2800F9D502231360D0F8043843F48063C0F881
:100B38000438ABE710380008036943F00103036188
:100B4800036C44F209229BB2934206D80369DA0780
:100B5800FCD40369002BFCDA704703699B00FCD5C1
:100B6800036923F0005323F0010343F000530361AA
:100B7800EFE700001D4B1E4A1B68934226D21D4A10
:100B8800934225D81C4A934224D21C4A934223D824
:100B9800A2F5DB12A2F5BA5293421FD8A2F5B712FA
:100BA800A2F5587293421BD8154A93421AD2154A95
:100BB800934219D2144A93422CBF0E230F23C268C2
:100BC80022F4705242EA8323C36070470623F6E793
:100BD8000723F4E70823F2E70923F0E70A23EEE7FF
:100BE8000B23ECE70C23EAE70D23E8E74400002099
:100BF8000048E801DF9DA30100366E013FA44C01C7
:100C0800807306010024F400C0E1E400034B43F6BE
:100C180002229A87002283F83E207047B0130020F2
:100C280010B50D4B044601461878FFF709FF0B4B2A
:100C380004F07F0003EB400303EBD41090F820305E
:100C480043F0020380F8203090F8203043F001038D
:100C580080F8203010BD00BF58000020F413002099
:100C6800F8B51A4D0F4600F07F0105EB410505EB7D
:100C7800D014C60994F8200010F0010C4FEA410383
:100C880009D04FF0E023D3F8F00D10F0010001D0A7
:100C980000BE0020F8BD94F820500D4845F001052D
:100CA80084F820500B4C007833441D0104EB0313E7
:100CB8006751C3F804C01A8111B9074B23F81620ED
:100CC8003246FFF721FE0120E4E700BFF4130020BD
:100CD80058000020541D0020380300202DE9F0475B
:100CE8004B79082B02D00020BDE8F0878B79062BC2
:100CF800F9D1CB79502BF6D1162A07D84FF0E0233B
:100D0800D3F8F03DDA07EED500BEECE7554D8B7809
:100D180085F82D300C78544FDFF85C81DFF85C9152
:100D28000C4402266378052B04D1E37803F003030F
:100D3800022B09D04FF0E023D3F8F03DD907DDD5D9
:100D480000BEDBE70126EDE7A17801F07F03052B64
:100D580007D94FF0E023D3F8F03DD807EAD500BE15
:100D6800E8E7BB78A288022BC2F30A020AD1B2F5DF
:100D7800007F09D04FF0E023D3F8F03DDC07E8D539
:100D880000BEE6E7402AF5D898F800A05046FFF7DD
:100D980045FD0028DDD0BAF1020FA178334BA288B7
:100DA80028BF4FF0000A4FEA0A1A01F07F0053F8F3
:100DB8000AC0430003EBD11E2D4B03EB0E13C2F305
:100DC8000A025A8194F806E083F80CE094F803E0EC
:100DD8000EF0030ABAF1010E18BF4FF0010EC9094F
:100DE80042F4004381F0010200EB021243EA8A4315
:100DF80043EA0E7302F1480203EA09034FEA42127A
:100E080018BF60F399534CF8023001290CBF002336
:100E18001023DCF81C281844012303FA00F01043BF
:100E2800CCF81C08A378DA0918D085F82E30237876
:100E3800012E1C4486D100230E4995F82F0085F811
:100E480030301F22FFF70CFF30B94FF0E023D3F802
:100E5800F03DDB0700D500BE172045E785F82F30A9
:100E6800E5E700BFB0130020F41300201038000895
:100E7800541D0020B003002058000020FF870C10EC
:100E880010B4114B99689A6B83F82C00022083F8F0
:100E9800300093F83C008A1A9A6220B942F205049D
:100EA8009C8783F83E0059B152B11A7B5DF8044B18
:100EB800D20914BF93F82E0093F82F00FFF7B0BEA5
:100EC8005DF8044B704700BFB0130020144B10B5F9
:100ED800144C6BB1607BAFF3008048B942F20773E2
:100EE80084F83E00A3870120BDE81040FFF7C8BF83
:100EF800A268A36B0C4994F82F00D21AB2F5805F50
:100F080028BF4FF4805292B2FFF7AAFE30B94FF0D3
:100F1800E023D3F8F03DDB0700D500BE10BD00BFCD
:100F280000000000B0130020B003002010F0800F74
:100F38004FF0000211460CBF80201046FFF790BE0C
:100F480010B40346064C00685968224603C20022C2
:100F5800C4E902225DF8044B1878FFF7E7BF00BF29
:100F68002403002013B5930800EB8303984209D1AA
:100F780012F0030204D00B68019301A902F0F6FBFA
:100F880002B010BD0C6840F8044BEFE7930813B5A6
:100F980001EB8303044699420BD112F0030206D0F9
:100FA800002301A8019302F0E1FB019B236002B03A
:100FB80010BD51F8040B2060EDE770B50589038971
:100FC800428986889BB292B2934236BFC2EB4602F0
:100FD8009B1A9B189BB29E420446ADB217D8C079A3
:100FE800C00914D170BD9B1B9BB2B342FBD2E288EF
:100FF8002068C2F30E0202FB030002F0B7FBA088D0
:1010080001222946FFF771FA20810120EAE72B46E1
:10101800EBE700002DE9F0434378023B85B0054635
:101028000C46042B13D8DFE803F003941A229B0024
:101038004E4B1A786FF300021A701A7800216FF37A
:1010480041021A7059701A7861F382021A70484B7B
:101058001E6814B9336820469847294662E0434B16
:101068001A78D7076ED51A7842F00402EEE73F4A9D
:101078001378DE0766D513786FF382031370E6E7FB
:1010880063D9D9F8002012EB431304D0DB6913B1FC
:1010980069682878984701363A78F3B29A42EFD2CD
:1010A800324E3378580728D533786FF3820333707C
:1010B8000023CDE9013303932B788DF80430052301
:1010C8008DF805302A4BD3F800801CB9D8F80030C9
:1010D8002046984701A908F10400FFF76EFF07466C
:1010E8001CB9D8F800300120984737B94FF0E023F1
:1010F800D3F8F03DD90700D500BEF378DA0721D53B
:101108000023019303932B788DF8043003238DF883
:1011180005306B680293164B1E6814B93368204675
:10112800984701A9301DFFF748FF054614B93368F1
:101138000120984735B94FF0E023D3F8F03DDB079D
:1011480000D500BE05B0BDE8F0839B1A08EB431339
:101158009CE7084FDFF82480DFF8249000269BE7FF
:10116800054A13780133DBB288E700BFF413002087
:1011780020140020E0020020E41400203038000889
:10118800DC02002070B40B4C0B4EA26BA3689B1AB8
:10119800A362032384F8303004F120030FCB3546D3
:1011A80007C52B7094F82E0031460D2270BCFFF74E
:1011B80057BD00BFB0130020B003002013B5124B79
:1011C8009889D98993F90040421A92B2402A28BFD7
:1011D8004022002C0EDA884212D099680B480192FE
:1011E80002F0C4FA0949019A802002B0BDE8104013
:1011F800FFF736BD88424FF0000003D10021F4E725
:101208008020FBE70149F0E724030020E4020020E6
:1012180070B50446164D00680B466168AB602E46F3
:1012280003C60021E981E1888A4228BF0A46AA81CB
:10123800E18881B152B14BB94FF0E022D2F8F02DDC
:10124800D20701D4002070BD00BEFBE7FFF7B6FF50
:1012580028B10120F7E72078FFF768FEF8E74FF09C
:10126800E023D3F8F03DDB07ECD500BEEBE700BF89
:1012780024030020012937B5154614D1137803F04B
:101288007F02022A3ED16C78012C3BD16A88002A61
:1012980038D13749AB8891F83020042ADBB204D121
:1012A8001846FFF7BDFC012010E091F82E00984287
:1012B8000ED1022AF7D1FFF765FF0028F3D14FF0CE
:1012C800E023D3F8F03DDB0750D500BE03B030BDB6
:1012D80091F82F008342E6D1002AE4D1254A00F094
:1012E8007F0302EB430303EBD01393F82020D107CD
:1012F800D9D493F820309A07D5D41F491F22FFF775
:10130800AFFCDAE703F06003202B2FD16B78FE2BBC
:1013180012D0FF2B2AD16B8843BBE9888AB22ABB3B
:10132800134B28469987C3E90D2283F8302083F8A8
:101338003E20FFF705FEB6E76B88BBB9EB88012BAB
:1013480014D18DF807300D4B1BB1AFF300808DF829
:1013580007009DF807304BB1013B01220DF1070151
:1013680028468DF80730FFF753FF9CE70020ADE7CC
:10137800B0130020F4130020B00300200000000088
:101388002DE9F041174D184E184F804600242A7851
:10139800E3B29A4210D2164C2C220021204602F0C9
:1013A800F3F91022FF21201D02F0EEF94FF0FF3370
:1013B8006361A361E3610BE00CD93A6812EB431354
:1013C8000BD14FF0E023D3F8F03DDB0700D500BE8A
:1013D800BDE8F0819B1A06EB4313DB68404698474B
:1013E8000134D4E7E002002030380008DC02002095
:1013F800F413002002484022002102F0C5B900BFC2
:10140800B013002002484022002102F0BDB900BFFD
:10141800B013002010B5154C227A32B1144B0422B7
:101428001A60BDE81040FFF791B82368E3B1114B8B
:10143800197819B103201A70FFF790F8D4E900322F
:101448009A4211D30A4B04221A60FFF77FF8BFF3C0
:101458004F8F0949094BCA6802F4E0621343CB6015
:10146800BFF34F8F00BFFDE710BD00BFE814002099
:101478002C1D00208B00002000ED00E00400FA0580
:101488002DE9F04F91B04FF0A04301909B6CDFF82D
:10149800E4A2C3F3832301330128069303460CBF58
:1014A80000231023079380F001035B0203F1A0439C
:1014B80003F51063029300254FF0A0420799D2F874
:1014C80018282944CA40D107EBB24AD5029A02EB40
:1014D80045126C0196689660019A012A40F01281C3
:1014E800F2070AD5002D46D19F4A5288002A42D0D9
:1014F800019A29462846FFF707FA370631D54FF0F3
:10150800A0430122D3F83438AA401A42049228D0C2
:1015180004F1A0444FEA0539D4F81039C3F3C9439C
:101528000893002303936B0109F1A049099303F180
:10153800A04309F580590593BDF80C30089A9A42E2
:101548002CD8099B4FF0A0421344D3F81039C3F3A9
:10155800120333B9D2F83438049923EA0103C2F8E4
:101568003438069A0135EBB29A420AF1200AA3D818
:1015780011B0BDE8F08F4FF4E06163F07F03BAF873
:101588001820ADF834108DF83830012100230DA84B
:101598000F928DF83930FFF73DFDAEE7059BBAF89D
:1015A8001A10D3F81039714A9BB2994228BF1946CC
:1015B800059BD3F8183902EA83039942C1D8DAF8AF
:1015C8001480B8F1000F7CD0B8F80820B8F80A30B9
:1015D800B8F8040092B29BB29A4236BFC3EB4006F9
:1015E800D61AB618B6B206B3B04207D282422CBF9A
:1015F800131A13189BB2A8F80A3006468E4228BF61
:101608000E4698421FD9B8F80610C71AC1F30E0241
:10161800BFB2D8F80010BE4202FB031116D816FB61
:1016280002F292B24846FFF7B1FCB8F80A10B8F8CF
:101638000400324689B2FEF758FFA8F80A00039B57
:101648000133039378E71B1A9BB2DAE717FB02F71B
:10165800BFB2341A1C4427F003039BB214FB02F2F6
:1016680094B248461A46CDE90A13FFF78FFC17F0E3
:10167800030723D000230D93DDE90A13C7F1040BF8
:101688001FFA8BFBA34519443A460DA828BFA34669
:1016980002F06CF80DABD8F800100A91D8195A4628
:1016A80002F064F80A990D9BC9F80030A4EB0B040A
:1016B800A4B25944002CB8D02246B3E7D8F8001099
:1016C800F8E7DAF810308A0803EB82029A4214D15C
:1016D80011F00300CCB20AD0A6071A7848BF1A88BE
:1016E800032804BF9B7842EA0342C9F80020DAF8CD
:1016F80010300B44CAF81030A1E753F8040BC9F8AE
:101708000000E3E73407F2B20ED54FF4C063ADF83A
:101718003430174B93E8030010AB03E903000121B1
:101728000DA8FFF777FC1CE7D0077FF51AAF9106E5
:101738003FF517AF32043FF514AF45B90A4A12888E
:101748002AB12A4629462846FFF7DEF809E7BAF8FB
:1017580008208DF838304FF4E0610023ADF83410DC
:101768000F928DF83930DAE738030020FCFF0300C8
:1017780040030020541D00202DE9F04FBA4FFB8A8A
:10178800B96889B05BBA9BB2029013B1B1FBF3F3AD
:101798009BB2BD6BD7F81160B5FBF3F2A1EB050A5C
:1017A800BAF5805F28BF4FF4805A36BA03FB12554A
:1017B8001644AE485246002101F0E6FFEDB9AC4CA4
:1017C800A4F12003AA45984626D8002D1CDB97F8DB
:1017D8002E0040F05F81029B8DF814308DF81800C0
:1017E8000723294605A88DF8153007958DF8195057
:1017F800FFF710FC09B0BDE8F08F4FF0E023D3F8F5
:10180800F03DDB0700D500BEFFF700FA012009B064
:10181800BDE8F04FFFF734BB18464FF400720021C3
:1018280001F0B2FF0346EEB9924A02F1380E106891
:1018380051689C46ACE80300083272456346F6D10D
:101848001068CCF800009288ACF80420552384F87E
:10185800DE31AA2384F8DF31013605F5007504F579
:101868000074ADE7B6F5017F3DD8701E824AB0F529
:10187800817F28BF6FF4817EB2F846C028BF06EB8F
:101888000E0001020CF1010C01F5807E0A464FF0B2
:101898000009944502F1010294BFA8F80090A8F845
:1018A8000020964508F10208F3D148B9F82204F857
:1018B800202CFF2204F81F2C4FF6FF7224F81E2C50
:1018C800DFF8B4C103204FF6FF7EBCF81620914222
:1018D80004D8521AFF2A98BF23F812E001380CF1F5
:1018E800180CF2D1B8E7B6F5027F51D840F20522BC
:1018F8009642B1D16149A4F115000A78002A40D076
:10190800013103F8012B8342F7D1282204F8152C62
:101918005B4A1268120A5202019204F16000564AA8
:10192800039023464FF0000847F6DC4945F6872127
:10193800908A00909646184603F10B0B9EF800C05B
:10194800BCF1000F1FD00EF1010E00F801CB584575
:10195800F4D100985883D06883F80D80A3F80E90CE
:1019680019825982A3F81480A3F81690198368B1D4
:101978001069D86103982033834202F11802D7D145
:101988006AE72022BDE74FF0200CDEE70198F0E778
:101998003C4A96423FF660AF37486FF4027C06EB4C
:1019A8000C0200218646A6F2072CB0F81480E04508
:1019B80003D8B0F81680E04505D20131032900F1BB
:1019C8001800F2D10221182000FB01EE0229BEF80E
:1019D8001400A2EB000202F1020014D0DEF810207D
:1019E800B2EB402F4FEA40217FF636AF521ADEF8AD
:1019F8000C00B2F5007F014428BF4FF4007218466E
:101A080001F0B4FE28E71E4B1B6802F5002202F520
:101A1800817203F1006CBCEB022F4FEA02217FF6C2
:101A28001BAF194A44F8202C02F1144202F52C127B
:101A380002F602321B0A44F81C2C44F8083C134AEC
:101A4800C4F8DC214FF400534FF4807244F8183C7A
:101A58000F4B44F80C0C44F8141C44F8102C44F8B0
:101A6800043C2046CCE700BFB0130020B0030020A0
:101A7800D003002000000020100100202B000020CF
:101A8800AC030020080101005546320A306FB10A44
:101A9800575A75570749AAB2FFF7E2F800287FF4AA
:101AA800A9AE4FF0E023D3F8F03DDB077FF5A2AEF7
:101AB80000BE9FE6B00300202DE9F04F8C4C94F84F
:101AC8003090B9F1010F97B084468E461D4600F05C
:101AD800D281B9F1030F00F00283B9F1000F43D1AD
:101AE80094F82F308B4201D0012013E01F2D05D12F
:101AF800804F814B3A689A42B8460ED094F82E002F
:101B0800042384F83030FFF78BF894F82F00FFF7A0
:101B180087F8002017B0BDE8F08F3E460FCE254667
:101B28000FC596E80F0007C525F8023B1B0C2B7064
:101B3800724B23626368A26884F82C90C4E909395F
:101B4800012384F83030E37B03F0FD012829C4E940
:101B58000D293BD1E18A49BA89B212BB002900F0AC
:101B680084810220FFF78CF994F83030022BBBD126
:101B780094F82E00624B00F07F0203EB420303EB64
:101B8800D01393F820309B07AED4A268A36B9A4277
:101B980040F2CB82237BDB0900F0C782FFF740F8D5
:101BA800A2E7282B0CD1207BC009DAD0A9B18A4240
:101BB800D7D3282B40F076826046FFF7DDFDD3E7C8
:101BC8002A2BF3D1207BC009F0D0CAE7B2B1217B20
:101BD800C90913D1B2F5805F01D90120C2E745498F
:101BE80092B27046FFF73CF80028BDD14FF0E023D1
:101BF800D3F8F03DDC078CD500BE8BE7252B94F895
:101C08000D9009D8192B1AD8032B00F0F880122B45
:101C18007ED0002B00F0258194F83C20002ADCD1EE
:101C2800E37BA08E1E2B1FBF42F2050384F83E20E3
:101C38004FF6FF72A387904228BF10460EE11A3B69
:101C48000B2BE9D801A252F823F000BFC51D0008EC
:101C58006B1E0008211C0008211C0008851C0008B8
:101C6800211C0008211C0008211C0008211C000858
:101C7800CF1C0008211C0008AB1C0008214B002BBE
:101C880000F0EF80227DE17C4846AFF30080002819
:101C980040F0E78094F83C30002BBDD1FEF7B6FF4A
:101CA800BAE719494FF40033C7E900130820A268BE
:101CB800002A92D0824228BF024662630D4994F8F6
:101CC8002E0092B28EE700220D92ADF83C20082239
:101CD8008DF837200D4A0E9202220DAB8DF83C206C
:101CE800ADF83E2093E8070088E807000C20DEE7FF
:101CF800B0130020B00300205553424355534253BC
:101D0800F41300200000000000010108000101098F
:101D18000023CDE90D3380238DF8353002238DF86B
:101D280036308DF837304FF020351F231022202110
:101D380011A88DF83830CDE90F5501F025FDB34ACB
:101D4800159510685168127A06AB03C31A70B04B28
:101D580009AA03F10807164618685968154603C505
:101D68000833BB422A46F7D1998818689B792860BE
:101D7800A980AB7106A8A74B0593FEF701FA06A93F
:101D880002460FA801F0F2FC3046FEF7F9F9314699
:101D9800024611A801F0EAFC05A8FEF7F1F90DAD1D
:101DA800024605A915A801F0E1FC0FCD9A4E0FC611
:101DB8000FCD0FC62B683360242078E79DF83620B6
:101DC80003238DF83430002363F306028DF8353091
:101DD8008DF83730914B8DF8362073B14846AFF304
:101DE80000809DF8363080F0010060F3C7138DF84D
:101DF80036300D9B3B60042059E70120F1E794F849
:101E08003C5094F83E6094F83D70122200210DA8D1
:101E180001F0BAFCF0238DF8343005F00F050A23E1
:101E28008DF836508DF841608DF83B308DF8407054
:101E38000DAD0FCD784E0FC62B683380784BC3B1EC
:101E48004FF48052A6F110014846AFF300800023FA
:101E58009842A38784F83E30FFF6DEAE00287FF470
:101E680026AFA368002B7FF4B8AE022384F8303085
:101E78007AE61220EBE7E27B282A06D1A36B1D4401
:101E8800636BA5639D42F0D296E62A2A40F00D8145
:101E9800DFF8B0B10026B542ABF1200208D8A36B39
:101EA800002E1D44A56380F2F980FEF7AFFE94E68C
:101EB8005BF8200C5B49884265D15BF81C1C5A4BC7
:101EC800994260D1DBF8DC01584988425BD19268BD
:101ED80022F4FF5222F01E029204920CB2F5005F27
:101EE80051D103F139435BF8042C03F5C01303F512
:101EF80010639A4247D15BF8143C01934C4A5BF853
:101F0800103C02931169002904DA4A494A4B51608E
:101F1800536012694948DFF830C14FF00062002170
:101F280050F8048B019B17464244934210D2444810
:101F38004FF0010C425C00F801C071B16AB910465B
:101F480080450AD9C259013240F0F5800430F7E7DC
:101F58000131182901D06245E2D9DFF8F080DFF8B5
:101F6800D090DA460027029BBB4203DD98F8181090
:101F7800012914D12E490A6942F000420A615BF82E
:101F8800081C002964D106F500760BF5007B82E772
:101F9800CA590132E1D104318845F9D8DDE7012079
:101FA8005AF8041B88F818004CF250300391FEF7D9
:101FB800E3FBF0B9D9F8100020F44070C9F810001C
:101FC800D9F8100040F40070C9F81000D9F81000D2
:101FD80040F00100C9F81000019B0399F9504CF238
:101FE8005030FEF7C9FBD9F8101021F00101C9F8EB
:101FF8001010002188F818100028BBD14FF0FF30CE
:10200800FEF7BAFB0028B5D10437ACE7B6370008AD
:10201800BF370008312E3000B00300200000000058
:10202800000000005546320A57515D9E306FB10AD4
:10203800003C024023016745AB89EFCD50380008CA
:10204800111D0020D0030020FFFF0708301D0020CD
:10205800474A1068814207D044F26307B94200D862
:1020680008B14FF0FF3111605BF80C1C44F26300BB
:10207800814288D801F0070702EBD101012091F8CD
:1020880009C0B84010EA0C0FC7B27FF47CAF47EA2A
:102098000C00487251680131516074E7636B9D42CE
:1020A800BFF4E3AEFEF712FF5EE5A36B1D44237B8E
:1020B800A563DB0906D11E2A1EBF42F20502A287CC
:1020C80084F83E30636B9D42BFF4CFAE4FF0E023FF
:1020D800D3F8F03DDA077FF547AD00BE44E594F844
:1020E8002E308B427FF440AD0D2D7FF43DADE37B68
:1020F800282B09D02A2B14D01E4B53B1607B04F136
:102108000F01AFF3008004E01B4B13B1607BAFF30A
:1021180000800023194994F82F0084F830301F22DA
:1021280060E5607BFFF776F9F3E7FFF72BF8002807
:102138007FF4DAAC5AE5124A106920F44070106155
:10214800106940F400701061106920F0F800106107
:10215800106940EAC10141F002011161116941F4BD
:10216800803111614FF0FF30FEF706FB002113E7C5
:10217800E81400200000000000000000B003002068
:10218800003C02402DE9804897B0954B002108910A
:102198001A6C42F080521A641A6C02F0805208924B
:1021A800089A904A0791116841F4804111601268B9
:1021B80002F480420792079A9A6802F00C02042AF5
:1021C80007D09A6802F00C02082A23D15A685202F2
:1021D80020D5834B1B68824B9A6802F00C02082AB0
:1021E80000F0F380804A00211166804A106819685F
:1021F8008E0100F1E4807E4959607B4B012119660C
:10220800106877490B689D0112D413681B1A022BBA
:10221800F8D90DE01A68724942F480321A60734A9C
:1022280010680B689F03D6D413681B1A642BF8D95F
:10223800704B1A6802F00F02042A40F2C8806849FD
:102248008B6843F4E0538B608B6843F460438B6086
:102258008B6823F0F0038B600B689C0100F1E88029
:102268005F4A6548936803F00C03042B00F0728101
:10227800082B00F07181614B594903608B68604AF3
:10228800604CC3F303131025D25C0368D34003608A
:10229800FEF75CF9002306930A6B42F001020A6319
:1022A8000A6B02F001020692069A05930A6B42F045
:1022B80002020A630A6B02F002020592059A04936D
:1022C8000A6B42F004020A630A6B02F004020492E9
:1022D800049A03930B6B43F008030B630B6B03F037
:1022E80008030393039B0123CDE91153139311A909
:1022F800022320461493FEF763F9434BA5610BB103
:10230800AFF300803B4B3B4D5A69D00741BF3F4A72
:102318009A6002F144329A60DA8A597D92B2CC29E5
:1023280018BF5B7D6B692B7D91071CD0384E337EBF
:10233800012B18D001234CF250303376FEF71CFAEB
:1023480028B9EB8A23F003031B041B0CEB82002340
:10235800337640B9274A137D43F0020313754CF2D4
:102368005030FEF709FA234A536943F001035361D9
:10237800284B294A19685B680A40B2F1005F40F0AF
:10238800088103F1774303F57F03B3F5002F00F2CB
:102398000081224B002B40F0F780214D214B2A6809
:1023A8009A424FF0000300F0EB811F498A4200F087
:1023B80098811E498A4240F0D1812B60E9E011687A
:1023C800091A02297FF613AF32E75B6830E7052266
:1023D8001A701B6803F00F0393423FF430AF3FE7D6
:1023E800003802400070004000004742501D0020A5
:1023F80008544007003C0240440000200024F40038
:10240800FE37000800080240000000003B2A1908B7
:10241800301D002000000108030000FF000000003C
:10242800FCFF0020EF6926F0B40AE8F5EF6916F022
:102438008B68B14A23F0030343F002038B601068F2
:1024480041F288348B6803F00C03082B57D1AB4B4F
:102458001A6802F00F02052A56D88B6823F4E05355
:1024680043F4A0538B608B6823F4604343F4004328
:102478008B608B6803F00C03042B69D0082B4CD0BD
:102488009F48A04BA04A9B68C3F30313D35CD84072
:102498009E4B18604FF47A73B0FBF3F00138B0F13B
:1024A800807FBFF4DDAE4FF0E022994C2168506187
:1024B8009848F02380F82330072500230F299361DB
:1024C80015613FF6CDAEC268C2F30222A81A0428ED
:1024D80002F1040528BF0420062D98BF1A464FF0C4
:1024E800FF3303FA00F388BF033A21EA030393405A
:1024F8001B01884ADBB282F823302160B0E61368FA
:102508001B1AA3429ED9ABE605221A701B6803F07A
:102518000F0393427FF4A4AE9FE74A684B6849686B
:1025280013F4800314BF7C487548C1F3881118BFA1
:10253800002302F03F02A1FB0001FDF729FE714BC9
:102548005B68C3F3014301335B00B0FBF3F098E72A
:10255800714896E7704B8FE65368516813F4800F03
:1025680001F03F01536814BF6B4A654AB2FBF1F1B1
:10257800644A5268C2F30142C3F3881301324B43E1
:102588005200B3FBF2F377E6AFF3008000287FF444
:1025980004AF4FF4C05361481193002402230A2565
:1025A80011A90326CDE9123415951496FEF708F8FB
:1025B8004FF480621223CDE911230123CDE91336AC
:1025C8001595FDF7FDFF4F4B554D5A6B554F42F092
:1025D80080025A6309945A6C42F480425A645B6CD4
:1025E8004FF0A04203F480430993099B936B43F493
:1025F800001393634C4B4FF400221A604FF480137E
:102608002B643846FDF7BCFDC0F5BF730133082BBA
:10261800044631D9454B07EB000C11AA03F1100E03
:1026280018685968164603C6083373453246F7D109
:102638001B7833700CF1FF311C224FF4002020FA74
:1026480002F303F00F0358336B44043A13F8143CB5
:1026580001F8013F131DF2D100238CF80830C4F5AE
:10266800BB730133062B04F1080040F21A8130498C
:10267800384401F091F80E3429492C6100200223D6
:102688000A698B82C2F30804520A002C18BF01326F
:1026980013449BB206305A1E1228CA8201F118014F
:1026A800EED1DFF8B48098F80030FF2B40F09E811F
:1026B8002C222048002101F067F81F4B00221A70D5
:1026C8001E4BDA819A811E4A13601E4B23B11E48A5
:1026D800AFF300801D4B18601B4D1D4E1B4F00248F
:1026E800F7E02B600320FDF739FF1A4B04221A602C
:1026F800FDF72CFF4DE700BF501D0020003C0240B5
:102708000024F40000380240FE370008440000208E
:10271800D802002000ED00E000127A00000002401C
:102728001001002058010020AC030020D537000814
:10273800CE370008F4130020E414002048000020DD
:102748002014002000000000E0020020DC0200202D
:10275800303800082C1D002058000020A94E2960A0
:1027680001203360FDF7D6FE4FF48013A361336870
:10277800B3F5FA7FFBD3FDF7E9FE1023A36100232D
:102788002B60A14B0BB1AFF30080A04B0BB1AFF3A3
:1027980000809F4B9F491E68D3F804C000224FF069
:1027A800010E0F274FF002084FF003090EFA02F34B
:1027B80033F0100048D122F0030000F1804000F50A
:1027C8009C3002F00305AD00D0F808A007FA05FB1D
:1027D8000AEA0B0A08FA05F5AA456FEA03030FD1BE
:1027E8000D681D400D604D681D404D608D681D4091
:1027F8008D60CD681D40CD60856825EA0B05856034
:102808002068550009FA05F520EA05002060D0087F
:10281800800000F1804000F5023002F0070AD0F88D
:1028280020B04FEA8A0A07FA0AFA2BEA0A0AC0F81D
:1028380020A0E06820EA0500E0606068034063606B
:10284800A36823EA0505A5600132102AAED1724BB0
:102858001A6B22F001021A631A6B22F002021A6341
:102868001A6B22F004021A631A6B22F008021A6328
:102878004FF0E02300221A615A619A614FF0FF324B
:10288800C3F88021C3F88421C3F88821C3F88C21B8
:102898005F4AC3F8082D86F3088886F309886047DD
:1028A800FEE70446E8E60CD23A6812EB43130BD174
:1028B8004FF0E023D3F8F03DD80740F1978000BEF1
:1028C80094E09B1A06EB43135B680134002BEFD0AE
:1028D80098472A78E3B29342E5D9504A00234FF04B
:1028E800A0411360536088F800300B6C4C4A1B0CF5
:1028F8001B0493421AD04B4A934217D002F58032F8
:10290800934213D04FF0E023D3F8F02DD70700D52A
:1029180000BED3F8F03DDE0700D500BE4FF0E0233F
:10292800D3F8F02DD407C5D500BEC3E78B6823F0D4
:1029380001038B60CC6844F04003CB608B6B24F4BC
:10294800705443F480338B634FF0A04044F4A25496
:10295800FEF7F2F8CC60FEF70DF9CB6843F00703F9
:10296800CB60D1F8003E23F00F03C1F8003E4FF4CE
:1029780084630B6103699D06FCD4102303614FF047
:10298800A043186910F01000FBD14FF0FF325A61D4
:102998005A6098619A6942F010029A61D3F8002847
:1029A80042F00702C3F80028D3F8042842F00202D4
:1029B800C3F80428DA6822F0C04242F08042DA60A4
:1029C8001A6822F0D00242F0C0021A609969164AC9
:1029D8000A439A619A6842F081029A60D3F80428FF
:1029E80022F00202C3F80428FDF7F2FF0220FDF7E7
:1029F800B5FD0E4F98F80030FF2B26D1FEE71B1AC5
:102A08009BB23CE0F0130020000000000000000032
:102A180000000108003C0140003802403803002053
:102A28000000544F0000315504380080E0020020B7
:102A38009DF82800FEF7A4FC1422B248002100F0FB
:102A4800A3FEB14B9DF82C209A70B04B1D68002056
:102A58002B689847A989EB89288989B29BB2994242
:102A680036BFC3EB4002CA1A521894B29CB1A042B6
:102A780005D281422CBF091A09188BB2EB81984202
:102A8800BDD96A896968C2F30E0202FB03110AA85C
:102A980000F06CFE0124E9892889224689B2FDF7F5
:102AA80024FD2B68E88101209847002CA2D09DF8CE
:102AB8002930013B072B00F2668301A252F823F06C
:102AC800392A0008E92A000857320008413200086C
:102AD80041320008032B00084D3100084732000836
:102AE8009DF82800FEF74CFC14220021854800F0D0
:102AF8004BFE0220FDF732FDA7E7854A137843B95C
:102B08004FF0E023D3F8F03DDA077FF573AF00BE4E
:102B180070E71378013BDBB21370137803F0FF0200
:102B2800002B92D1784C774E2378326143F0010321
:102B3800237094F820309DF8285062F3000384F83D
:102B4800203094F8203062F3820384F8203094F81F
:102B5800213062F3000384F8213094F8213062F3C5
:102B680082039DF82C2084F8213002F06003602B4A
:102B780007D14FF0E023D3F8F03DD90705D500BEC3
:102B880003E0402B0CD1634B33619DF828000021F2
:102B9800FDF756FF9DF828008021FDF751FF54E707
:102BA80002F01F02012A00F01182022A00F04C8272
:102BB800002ADED1202B15D19DF830300F2BE4D818
:102BC80023443A781B79934209D2534A116811EB8E
:102BD8004311DAD00BAA2846FDF794FC65E1D4D15D
:102BE8004E49F7E7002BC4D19DF82D20092AC0D8FB
:102BF80001A151F822F000BFB72F0008A52F000847
:102C08007B2B0008912F00087B2B0008292C00083B
:102C1800772E00087B2B0008752C00087F2C0008F5
:102C2800012D98BF2B461B013D4ADDE90B01D25807
:102C3800D2F80038C6E900019DF82E0023F4FE639F
:102C480043EA0013C2F80038364B0021C3E90411E7
:102C58001983354BC6E90211598001222846FDF730
:102C680053FE237843F002032370EEE663788DF871
:102C780044300122A5E19DF82E606278964200F06A
:102C880098806278002A66D0012D98BF2B46244A86
:102C980025481B014FF0000CD35880F807C09969EC
:102CA80080F806C002EB051221F00801996192F83C
:102CB80008901C494FF00112C3F81C280120C2B229
:102CC8004A4533D203EB40122031D2F800E9BEF175
:102CD800000FBEBFD2F800E94EF0904EC2F800E9EE
:102CE800A1F81AC0D2F800EBBEF1000FBEBFD2F8AF
:102CF80000EB4EF0904EC2F800EB0130A1F80AC08C
:102D0800DDE700BF24030020F41300202014002076
:102D1800E4140020EF040008DC020020303800082A
:102D280010380008541D0020380300204FF4846236
:102D38001A611A699106FCD410221A611A69D2061E
:102D4800FCD42846FDF7C2FD94F802902846FEF709
:102D580017FB84F802906670002E00F08680B24956
:102D68004B78022B0FD04FF0E023D3F8F03DDE076D
:102D780079D44FF0E023D3F8F03DDD0700D500BE4D
:102D88000023637001E7CB79C3F38012C3F34013C8
:102D98001B0143EA4213227822F0300213432370C6
:102DA800B1F8029089440931894506D80120FDF718
:102DB800D5FB0BA8FEF7C4F847E64B780B2B03BFEF
:102DC8000B7891F803B0C9184FF0010B4B78042B1E
:102DD800C9D1A9EB010292B24FF0000A3B785FFA21
:102DE8008AF69E42BFD811D2904B1B6813EB46134C
:102DF800B9D01B692846CDE9001298470828DDE9B3
:102E080000122DD982422BD3002210E08848F31AF1
:102E180000EB4313EDE791F802C0634454FA83F3DF
:102E2800013293F804C0BCF1FF0F9CD11E71D3B2DC
:102E38005B45F0D30844884204D83B78B34292D328
:102E48000146B1E74B78052B07D18A7802F07F035A
:102E580004EB430303EBD2131E750B781944EAE71E
:102E68000AF1010ABAE700BE83E702209FE7BDF82E
:102E78002E301A0A511E06293FF687AE01A050F8D7
:102E880021F000BFA92E0008BB2E0008C72E00089D
:102E9800932B0008932B0008932B0008BB2E0008E7
:102EA800644912220BA8FEF7B3F900287FF4CDADD0
:102EB8006BE6022A7FF469AE5B494A88F2E713F0B1
:102EC800FF0319D0032B24D0042B3FF65EAE5A4AD9
:102ED80052F823402046FDF753F9C2B2302A28BFE2
:102EE8003022564B2046A118814203F1020308D034
:102EF80010F8014B1C80F7E7504B40F209425A800A
:102F080001220132D2B24D49520042F440730B8083
:102F1800C8E74B4B494CD3F8102A0D92D3F8142A22
:102F28000E92D3F8183A0F930DF1340E0026454B44
:102F380011AD03F11009186859682A4603C208330D
:102F48004B451546F7D11EF8015B05F00F035833C2
:102F58006B440DF1440C13F8143CA380394B1868EA
:102F68005968624603C208334B459446F7D116ABFD
:102F780003EB1513013613F8143C63800C2E04F18F
:102F88000404D4D11822BCE7BDF82E30012B7FF4FD
:102F9800FCAD237843F0080323700AE7BDF82E3010
:102FA800012B7FF4F2AD23786FF3C303F4E72378A2
:102FB800C3F340129B0803F002031343ADF84430F7
:102FC800022211A90BA8FEF723F93EE59DF830303F
:102FD8000F2B3FF6DAAD23443A781B7993421ED281
:102FE800124A116811EB43113FF4CFAD0BAA2846E2
:102FF800FDF788FA00287FF428AD9DF82C3013F0EF
:1030080060037FF4C2AD9DF82D20A2F10A010129C9
:103018003FF6BBAD0A2A33617FF4CBAE27E67FF4D7
:10302800B4AD0349E2E700BF59000020DC020020EC
:103038003038000879000020B03800084803002024
:103048000070FF1FD53700089DF8300000F07F01A1
:1030580005293FF68EAD04EB410E0EEBD01E97F816
:1030680000909EF814E0CE454FEAD01C4FEA41028A
:1030780017D2DFF80092D9F8009009EB4E19CBB9B6
:103088009DF82D3003F0FD0EBEF1010F17D0002B77
:103098007FF46FADA318634493F82030C3F3400363
:1030A8008CE740F0D880DFF8D091002BE8D00BAA4D
:1030B800494690E5B9F1000F3FF467ADF7E7BDF871
:1030C8002EE0BEF1000F29D1012B38D198F800006D
:1030D800022828BF00208CF0010301EB0313000134
:1030E8006049095801EB4311D1F8003923F4001362
:1030F800C1F80039D1F8003943F08053C1F80039DC
:10310800A318634493F820206EF3410283F820202B
:1031180093F820206EF3000283F82020B9F1000F05
:103128003FF493AC0BAA49462846FDF7EBF9002378
:10313800336194F82130D8073FF587AC39E6FDF7BD
:103148006FFDEBE79DF82C10474B01F07F0403EB74
:10315800440303EBD113C80993F820206FF300024E
:1031680083F8202093F820206FF3820283F8202030
:10317800002C4BD13D4C9DF8285023780C9EB0EB89
:10318800D31F12D046B14FF0E023D3F8F03DDB0750
:103198007FF55BAC00BE58E42369002B3FF455ACC7
:1031A80022460321284698474FE494F90030002B23
:1031B80007DBA06800283FF448AC2D49324600F0F0
:1031C800D5FAA268E38932443344A260E2889BB20C
:1031D8009A42E38101D03F2E15D8236933B920786C
:1031E800FDF7A4FE00287FF430ACCCE702211F4A8B
:1031F8002846984701460028F1D12846FDF720FCCB
:1032080080212846C9E4FDF7D9FFEBE71A7D3B7812
:103218009A420DD2174B1B6813EB42133FF470AC64
:103228009C699DF82D200C9B9DF82800A0470CE474
:103238007FF466AC104BF3E70B4B1B7805E40B9B54
:10324800002B3FF402AC0C989847FFF7FEBB064BE7
:10325800DB78FFF7FABB002B7FF497AC4FF000093F
:103268000EE700BF10380008F413002024030020E4
:10327800E4020020DC02002030380008704700001B
:10328800124A136801331360114B1B68022B0CD8C8
:10329800D3B113681268DBB2D20544BFDB43DBB29B
:1032A8000C4A2BB9102393617047032B03D0704746
:1032B8004FF48013F7E7136813F0010F054B14BFA1
:1032C8004FF4801210229A61704700BFF01300205B
:1032D8002C1D0020000802402DE9F04F4FF0A043BC
:1032E80089B09F695A691740FE0469D54FF4805226
:1032F8005A619C6CBA48C022002100F045FAB94ACC
:10330800C4F3832400230134D3805A0102F1A0427C
:103318000133D2F8001B41F00061C2F8001BDAB299
:103328009442F2D80022530103F1A0430132D3F8AA
:1033380000190029BEBFD3F8001941F09041C3F825
:103348000019D3B29C42EED84FF0A0434FF00112BF
:10335800C3F81C280922C3F81428C3F810284FF40E
:1033680084621A611A699506FCD410221A614FF01A
:10337800A044256915F01005FBD12846FDF7A6FAEB
:10338800D4F8003865F30A13C4F80038D4F80039C3
:1033980023F00303C4F80039D4F8003B23F00303F7
:1033A800C4F8003B8E4B40225A815A83D4F8103B14
:1033B80043F0C043C4F8103BA36943F44023A3611E
:1033C800BC0419D54FF0A0434FF400525A61D3F80A
:1033D800082812F0060FC2F3410300F0DF80981EA0
:1033E800434243414FF48072012105A8ADF81420EF
:1033F8008DF81830FDF70EFE39050CD54FF0A043B7
:103408004FF400625A6101214FF4806305A8ADF8BA
:103418001430FDF7FFFD002F0CDA4FF0A0434FF0FA
:1034280000425A6101214FF4A06305A8ADF8143099
:10343800FDF7F0FD7A070FD54FF0A0435C686307EE
:1034480007D54FF40073012105A8ADF81430FDF736
:10345800E1FD4FF0A0435C603E0717D54FF0A04355
:10346800082260495A61D3F80828C979C2F30D22A5
:1034780019B9996921F0080199614FF44073012144
:1034880005A8ADF814300692FDF7C4FDFD0640F11D
:1034980099804FF0A042936923F0100393614FF095
:1034A800A0431B6A049303F00F02C3F34343042BA6
:1034B800019200F09D80062B72D0022B76D1BDF8C8
:1034C8001060C6F30A16002E70D0019B019A5901AC
:1034D800434B03EB4213D3F80480B8F1000F00F01C
:1034E800EC8098F80710B8F80820B8F80A40B8F83F
:1034F8000430C90992B2A4B240F08580A24236BF16
:10350800C4EB4304141BA418A4B29C4236BFA3EB1B
:1035180004094FF000091FFA89F9B14528BFB146DF
:103528001446B9F1000F1FD0A4469C4580F0858051
:10353800B8F806002C49A3EB0C0BC0F30E021FFAD7
:103548008BFBD8F80000CB4502FB0C007AD312FBAA
:1035580009F292B2FDF706FDB8F804004A46214682
:10356800FCF7C3FFA8F808001D48019A019B00EB6F
:1035780042125B015189B14218D903F1A043D3F833
:10358800101B13895B1A9BB21381019A72B9154AF1
:1035980011885B1A0381019B138007E0022321E74E
:1035A800114A124B1168196012685A604FF0A04313
:1035B8005B69D9063FF573AF4FF0A042936943F0BA
:1035C800100393613A0302D50020FDF759FF7B03EE
:1035D80040F19380012009B0BDE8F04FFDF750BFDE
:1035E800541D002038030020001000504003002024
:1035F800019B5B0103F1A043D3F8102B42F0C042BA
:10360800C3F8102BD2E79E4213D2A2424FEA4300DE
:1036180036BF011B111B891889B2314481420ADB6C
:103628009A1B214692B21846FCF75FFF0446B14642
:103638007AE7994675E71446F9E7ACEB030C1FFAED
:103648008CFC72E71BFB02FBA9EB030363441FFA24
:103658008BFB13FB02F22BF003039BB295B21A46C5
:10366800CDE90203FDF77EFC1BF0030B22D0DDE958
:1036780002032349CBF1040A1FFA8AFA0A68059261
:10368800AA455A4605A9184428BFAA4600F06EF86C
:10369800D8F8003005A952465944184600F066F893
:1036A800A5EB0A05ADB25044002D3FF455AF1449BF
:1036B8002A464FE7D8F80000F6E7124B10485B5847
:1036C800B20803EB82029A4213D116F00300F4B257
:1036D8000AD00B4A12681A70A40744BF140A5C7017
:1036E800032804BF120C9A70064A535833445350A7
:1036F8003AE7046843F8044BE5E709B0BDE8F08F02
:1037080000100050541D0020054BD3F8882042F4C7
:103718007002C3F888204FF000629A60704700BFBB
:1037280000ED00E070B50D4D0D4C641BA410002693
:10373800A64209D10B4D0C4CFFF7A0FD641BA41049
:103748000026A64205D170BD55F8043B98470136BE
:10375800EEE755F8043B98470136F2E7CC38000805
:10376800CC380008CC380008CC3800080A4491420C
:1037780000F1FF3300D1704710B511F8014B03F881
:10378800014F9142F9D110BD02440346934200D142
:10379800704703F8011BF9E7034611F8012B03F8FA
:0837A800012B002AF9D1704742
:1037B000FF000000FF004164616672756974005586
:1037C000463220426F6F746C6F61646572002062D4
:1037D00079746573003031323334353637383941D6
:1037E0004243444546004D4B53004D4B53204D6FD3
:1037F0006E737465723820563200554632000000F0
:103800000000000000000102030406070809090483
:10381000000000504300000004000000000500000C
:10382000000004404D0000000600000000100000F1
:1038300000000000FD130008000000000D14000847
:10384000E50C00087D120008C11A00080000000005
:103850000040000000400000004000000040000068
:103860000000010000000200000002000000020051
:103870000000020000000200000002000000020040
:103880000040000000400000004000000040000038
:103890000000010000000200000002000000020021
:1038A0000000020000000200000002000000020010
:1038B0000E380008E6370008EA370008001D00202F
:0438C000FA370008CB
:0838C40004C9FF7F01000000B0
:1038CC00EB3C905546322055463220000201010057
:1038DC000240000000F8020101000100000000009D
:1038EC0009010100800029420042004D4F4E535403
:1038FC004552385F56324641543136202020CC6632
:10390C00000000000024F400050A00082414002024
:10391C0010000C0000000000FF0902200001010053
:10392C00A0320904000002080650040705010240F9
:10393C000000070581024000001201000200000097
:10394C00409A235900010101020301013C21646FDB
:10395C0063747970652068746D6C3E0A3C68746D94
:10396C006C3E3C626F64793E3C7363726970743E6A
:10397C000A6C6F636174696F6E2E7265706C616333
:10398C0065282268747470733A2F2F676974687590
:10399C00622E636F6D2F6D616B6572626173652D45
:1039AC006D6B732F4D4B532D4D6F6E737465723859
:1039BC0022293B0A3C2F7363726970743E3C2F6260
:1039CC006F64793E3C2F68746D6C3E0A00000000F9
:1039DC00494E464F5F55463254585400580100200A
:1039EC007F01000000000000494E44455820202073
:1039FC0048544D008C0000208000000000000000A6
:103A0C0043555252454E542055463200000000009A
:103A1C00000000000000000054696E795546322009
:103A2C00426F6F746C6F61646572206635336366C8
:103A3C003666202D2074696E797573622028302EBD
:103A4C0031382E302D31332D6732643764313037B5
:103A5C003066290D0A4D6F64656C3A204D4B53202E
:103A6C004D4B53204D6F6E73746572382056320D6A
:103A7C000A426F6172642D49443A204D4B535F4D9D
:103A8C004F4E53544552385F56320D0A446174659B
:103A9C003A2041707220203720323032350D0A46E0
:103AAC006C6173682053697A653A203078000000A5
:103ABC0000000000000000000000000000000000FA
:103ACC0000000000000000000000000000000000EA
:103ADC0000000000000000000000000000000000DA
:103AEC0000000000000000000000000000000000CA
:103AFC0000000000000000000000000000000000BA
:103B0C0000000000000000000000000000000000A9
:103B1C000000000000000000000000000000000099
:103B2C000000000000000000000000000000000089
:103B3C000000000000000000000000000000000079
:103B4C000000000000000000000000000000000069
:103B5C000000000000000000000000000000000059
:103B6C000000000000000000000000000000000049
:103B7C000000000000000000000000000000000039
:103B8C000000000000000000000000000000000029
:0C3B9C000000000000000000100000000D
:040000050800049D4E
:00000001FF
